:100000000C942A000C9447000C9447000C94470071
:100010000C9447000C9447000C9447000C94470044
:100020000C9447000C9447000C9447000C94470034
:100030000C9447000C9447000C9447000C94470024
:100040000C9447000C9447000C9447000C94470014
:100050000C94470011241FBECFE5D4E0DEBFCDBF16
:1000600010E0A0E6B0E0E4E4F2E002C005900D92FA
:10007000A036B107D9F710E0A0E6B0E001C01D92AC
:10008000A136B107E1F70E94EB000C9420010C941B
:100090000000282F207F28BBC298C39A20ED37E0AC
:1000A000F9013197F1F7C398F9013197F1F790E031
:1000B00044E0880F991F4A95E1F788BBC298C39A1C
:1000C000C9010197F1F7C398C9010197F1F70895A4
:1000D00082E090E00E94490088E290E00E9449009E
:1000E00086E090E00E9449008CE090E00E94490088
:1000F0000895282F207F28BBC29AC39A20ED37E0AD
:10010000F9013197F1F7C398F9013197F1F790E0D0
:1001100054E0880F991F5A95E1F788BBC29AC39A99
:10012000C9010197F1F7C398C9010197F1F7089543
:1001300081E00E94490080ED97E00197F1F7089572
:100140001F93CF93DF93EC0110E003C00E9479006E
:100150001F5FFE01E10FF11D80818823B9F7DF9158
:10016000CF911F910895CF93DF93EC0184E00E941B
:100170004900209791F480E30E9479000EC0CE01DF
:100180006AE070E00E940C01805D0E947900CE015F
:100190006AE070E00E940C01EB01209781F786E095
:1001A0000E944900DF91CF91089583B984E886BF0A
:1001B00006B607FEFDCF089584EA86BF06B607FEA1
:1001C000FDCF089584E986BF089511B887E480B90A
:1001D00084E086BF08958FEF87BB0E94680011B846
:1001E00087E480B984E086BF84EA86BF06B607FE4E
:1001F000FDCF80EA83B984E886BF06B607FEFDCF4F
:1002000080EF83B984E886BF06B607FEFDCF84E998
:1002100086BF83B188BBFDCFAA1BBB1B51E107C0C2
:10022000AA1FBB1FA617B70710F0A61BB70B881F86
:10023000991F5A95A9F780959095BC01CD01089515
:04024000F894FFCF60
:00000001FF
